:100000000C942A001895000018950000189500001F
:10001000189500001895000018950000189500002C
:10002000189500001895000018950000189500001C
:10003000189500001895000018950000189500000C
:1000400018950000189500001895000018950000FC
:10005000189500008FE58DBFC0E4E8E34E2E84E0E4
:100060008EBFD4E0F4E05F2EEEEFF3E0A0E6B0E068
:10007000A89584B7082E877F84BF88E1992781BD22
:1000800091BD88278D933197E9F7662480E087BB7F
:100090008FEF81BBB898A1E6B0E09C9197FF04C0B8
:1000A000B09910C09F779C93B09B0CC089E19F933F
:1000B00099270E948F019F91B09B04C090689C93E8
:1000C0000C947C00B998A1E6B0E09C9196FF04C026
:1000D000B19910C09F7B9C93B19B0CC089E19F9309
:1000E00099270E948F019F91B19B04C090649C93BB
:1000F0000C94BA000C944A0081E082BBB998A1E646
:10010000B0E09C9196FF04C0B19910C09F7B9C9376
:10011000B19B0CC089E19F9399270E948F019F9109
:10012000B19B04C090649C930C94BA0088E592E063
:100130000E948F0180E182BBB998A1E6B0E09C915A
:1001400096FF04C0B19910C09F7B9C93B19B0CC0DB
:1001500089E19F9399270E948F019F91B19B04C0D1
:1001600090649C930C94BA0088E592E00E948F0101
:100170000C947C0087E0809360004091600000E078
:10018000041718F011F00C94EB008CE082BBB898C7
:10019000A1E6B0E09C9197FF04C0B09910C09F7792
:1001A0009C93B09B0CC089E19F9399270E948F017B
:1001B0009F91B09B04C090689C930C947C00E1E0FC
:1001C000F0E00E9480018091600081508093600087
:1001D00010F00C94BD0082E08093600040916000BC
:1001E00000E0041718F011F00C941C018AE082BBA7
:1001F000B898A1E6B0E09C9197FF04C0B09910C0F8
:100200009F779C93B09B0CC089E19F9399270E9494
:100210008F019F91B09B04C090689C930C947C00CC
:10022000E1E0F0E00E9480018091600081508093C5
:10023000600010F00C94EE0087E080936000409125
:10024000600000E0041718F011F00C944D0181E2F9
:1002500082BBB898A1E6B0E09C9197FF04C0B0992A
:1002600010C09F779C93B09B0CC089E19F93992706
:100270000E948F019F91B09B04C090689C930C9446
:100280007C00E1E0F0E00E948001809160008150FC
:100290008093600010F00C941F0182E08093600056
:1002A0004091600000E0041718F011F00C947E01FA
:1002B00081E182BBB898A1E6B0E09C9197FF04C0B1
:1002C000B09910C09F779C93B09B0CC089E19F931D
:1002D00099270E948F019F91B09B04C090689C93C6
:1002E0000C947C00E1E0F0E00E94800180916000CD
:1002F00081508093600010F00C9450010C94BA006F
:1003000088EE93E00CD03197D9F708953197F1F743
:100310000895689462F80895E89462F80895EF9358
:10032000FF93EE27E82BE92B31F0EAEFF0E031976D
:0C033000F1F70197D1F7FF91EF910895CC
:00000001FF
